:020000040800F2
:1000000078070020C5010008552C00084D2C000879
:10001000512C000889110008052E0008000000007E
:100020000000000000000000000000005D2C00083F
:10003000A511000800000000592C0008612C0008E0
:10004000DF010008DF010008DF010008DF01000810
:10005000DF010008DF010008DF010008DF01000800
:10006000DF010008DF010008DF0100088D11000832
:10007000DF010008DF010008DF010008DF010008E0
:1000800099110008DF01000851100008DF01000885
:10009000DF010008DF010008DF010008DF010008C0
:1000A000DF010008DF010008DF010008DF010008B0
:1000B000DF010008DF010008DF010008DF010008A0
:1000C000DF010008DF010008DF010008DF01000890
:1000D000DF010008DF010008F92D0008DF0100083A
:1000E000DF010008DF010008DF01000800F002F86E
:1000F00000F059F80AA090E8000C82448344AAF169
:100100000107DA4501D100F04EF8AFF2090EBAE866
:100110000F0013F0010F18BFFB1A43F0010318473B
:100120006C4100008C410000103A24BF78C878C1AF
:10013000FAD8520724BF30C830C144BF04680C60ED
:10014000704700000023002400250026103A28BF35
:1001500078C1FBD8520728BF30C148BF0B60704739
:100160006E2900F0BF80702900F0D080662903F06E
:10017000F887652903F0F587672903F0F28761297D
:1001800003F0F187732900F0E985002070471FB55F
:1001900000F0E8FD04000020002103F07BFCE0609B
:1001A0001FBD10B510BD00F0DDFE1146FFF7EFFFDB
:1001B00002F02AFE00F0FBFE03B4FFF7F2FF03BCDF
:1001C00000F03EFF0948804709480047FEE7FEE788
:1001D000FEE7FEE7FEE7FEE7FEE7FEE7FEE7FEE7F7
:1001E00004480549054A064B70470000652C000885
:1001F000ED00000878010020780700207803002037
:10020000780300200FB41CB50C0007AA009007D09B
:100210004142A14202D32044401E01E04FF0FF3092
:10022000074B7B4469460190069800F06AFD002068
:10023000002C01D0009908701CBC5DF814FB000074
:10024000030B000070B5044685690068C10601D53E
:10025000302600E02026C00707D070BDD4E9012178
:1002600030469047206A401C20626D1EF6D570BD56
:1002700070B5044685690078C00707D170BDD4E920
:10028000012120209047206A401C20626D1EF6D577
:1002900070BD70B50C460546012A05D02878800649
:1002A00000D5EA69002302E0012305E05B1C9342CC
:1002B00002D2E05C0028F9D1A869E618C01AA8614A
:1002C000286A184428622846FFF7BCFF04E0D5E9F5
:1002D000012114F8010B9047B442F8D32846FFF7E8
:1002E000C7FF70BD11680268006A530501D5087028
:1002F0000AE0D30501D5088006E0130603D5C2172E
:10030000C1E9000200E0086001207047F0B4136802
:1003100002680824C4610C4642F020020260110504
:1003200002D50E4A7A4402E00C4A7A440E32002189
:1003300000F1240505E003F00F061B09965D6E54DD
:10034000491C002BF7D105782D0703D5702C01D15E
:1003500001231032F0BC00F0E9B80000423E00007A
:100360002DE9F05F894604464FF0000ADFF874B1CA
:10037000FB44C0F820A02046E1688847002874D0DC
:10038000252806D0D4E901219047206A401C20622C
:10039000F1E700265F462046E168884720280546A9
:1003A00007DB312D05D2781910F8200C08B106436F
:1003B000F1E7B00701D526F00406C4F81CA0002719
:1003C000C4F818A02A2D09D0284603F05BFB38B3E7
:1003D00004EB8708303DC8F8185019E059F8041BA1
:1003E000204604EB87029161E1688847012F0546AA
:1003F00018D1E069002820DA26F020061DE0D8F8A0
:10040000180000EB800005EB40003038C8F81800F9
:100410002046E1688847054603F034FB0028EED10A
:10042000012F0AD02E2D08D12046E16888477F1C75
:100430000546022F46F02006C4DBA069002803DA37
:10044000404246F00106A061F00701D026F01006F8
:100450006C2D0BD0682D09D04C2D39D06A2D35D09C
:10046000742D35D07A2D33D016E038E0E1682F4670
:1004700020468847B842054609D16C2F26D04FF454
:100480008060E168064320468847054604E06C2FFB
:100490001AD04FF4807006430DB3A5F1410019281E
:1004A00002D8203546F400664A4629462046266092
:1004B0004E46FFF755FE80B101280BD0F61D26F001
:1004C000070000F1080956E74020E4E78020D8E75C
:1004D0000020D6E706F104094DE7284652E7206AD6
:1004E000BDE8F09F1E3E000010B5431C02E010F86E
:1004F000011B71B18107FAD14FF0013202C88C1A89
:100500008C4314EAC211F9D0C01A0A0603D0C01EE7
:1005100010BDC01A10BD0A0401D0801E10BD090212
:10052000FCD0401E10BD7047704770472DE9F04762
:100530000D4699469246044600F124080168880653
:1005400004D5E06921F01001216000E00120A842FB
:1005500001DD471B00E00027A1697A1902EB0900C1
:10056000081AA0612078C00602D42046FFF76AFE70
:10057000002608E0D4E901211AF806009047206A15
:10058000401C761C20624E45F4DB2078C0060AD55C
:100590002046FFF757FE06E0D4E9012130209047BE
:1005A000206A401C2062381EA7F10107F4DC07E036
:1005B000D4E9012118F805009047206A401C206208
:1005C000281EA5F10105F3DC2046FFF751FE207837
:1005D000000602D50220BDE8F0870120FBE72DE9E7
:1005E000FF4F0C461E464FF0FF378BB0D2E900019B
:1005F000DDF860800A908A46C1F30A5505B93D4688
:10060000002108464FF00000BAF1000F00F440004E
:1006100005DA00EB80004FF4400101EA50004FEA98
:100620009059B9F1010F00DDB9460A9850EA4A0025
:100630000ED044F61050A5F2FF3545432F14B8F103
:10064000000F1ED07542291E1EDDC9F100021CE0FC
:10065000B8F1010F4FF0000001D0302103E0F24368
:1006600005E02154401CB042FBDB30460022002153
:1006700021540B99C1F80880C1E900200FB0BDE8F2
:10068000F08FBD1B6D1CDEE74A4600DA694206A802
:1006900000F0F2FB06AB93E8070003AB83E807002A
:1006A00050460A9902F011FE8DE80700A0F50050AF
:1006B0001F3800900398002D0ADD42F21F014A46C0
:1006C0000844002303A90390684603F07BF809E07F
:1006D000A0F500504A461F38002303A9039068463E
:1006E00003F085F88DE807000004000C03D04FF0FC
:1006F000FF30410800E01046B8F1000F03D000229F
:10070000009215461EE0751E05D400F02FFB303216
:1007100062556D1EF9D5B3460122084302D000226E
:100720007F1C04E02078302801D100227F1E002A9F
:10073000099784D01DE0112D07DA00F017FB303245
:1007400062556D1C50EA0102F5D1084302D00098B1
:10075000C8B10EE00021681E05E0235C625C6354B2
:100760002254401E491C8142F7DBAB46A81B401EA9
:100770000990002004F80B000B98099AC0F8088033
:10078000C0E9002B7AE711264FF0000857E72DE962
:10079000F04F88460446D21D22F0070191B0D1E9FE
:1007A0000001CDE90A0103F059F902460B98C00F88
:1007B00001D02D2007E02068810701D52B2002E021
:1007C000202101EAC000032A099001D0072A05DB95
:1007D00003464146204600F00FFB0BE120788006DF
:1007E00001D5E06900E00620B8F1650F814606D02A
:1007F000B8F1660F18D0B8F1670F70D131E0002062
:10080000B9F1110F009001DB112301E009F101039F
:100810000AAA01A90CA8FFF7E2FEDDE90C70002688
:1008200009F10105834647E001204B4600904FF057
:1008300000470AAA01A90CA8FFF7D1FEDDE90DB017
:100840000C995D46002610B909F101000D18B9EBAD
:10085000050003D4C0F1FF3609F10105A5EB09003D
:100860002BE0B9F1010F01DA4FF001090020B9F1D5
:10087000110F0090484601DD112300E003460AAA4B
:1008800001A90CA8FFF7ABFEDDE90C704D46002670
:100890008346207800070AD4AB4500DA5D4601A8FC
:1008A000012D04DD411911F8011C302907D04F45F5
:1008B00002DA17F1040F04DA012082460FE06D1E00
:1008C000EEE7002F02DCED1B3E4403E0781CA8425B
:1008D00000DD7D1CB81B00F1010A4FF000472078B5
:1008E000000703D4AA4501DB4FF0FF3A0021B7F11E
:1008F000004F0DF143088DF8431024D002202B2324
:10090000002F01DA7F422D230A21021EA0F10100EF
:1009100000DC5FB197FBF1FC97FBF1F201FB1C7C63
:1009200017460CF1300C08F801CDEEE7A8F10100F4
:1009300003702188090501D5452100E06521A0F15A
:10094000010800F8011C09980FA9A1EB0807FF1D79
:1009500000B10120411901EBEA70A1693844081A7D
:10096000401EA0612078C00602D42046FFF76AFC32
:10097000099828B1D4E901219047206A401C2062DF
:100980002078C00622D52046FFF75CFC1EE0002E32
:1009900004DBB34502DD01A8805D00E03020D4E92E
:1009A00001219047206A401C2062761CAAF10100B8
:1009B0005FEA000A0AD100F0D5F9C0680168405C1E
:1009C000D4E901219047206A401C2062281EA5F12D
:1009D0000105DCDC07E0D4E9012118F8010B9047A0
:1009E000206A401C2062381EA7F10107F3DC204674
:1009F000FFF73EFC032011B041E600002DE9F04F67
:100A000004460D46D21D22F0070089B0D0E90097B8
:100A10004846394603F022F80246F80F01D02D234C
:100A200007E02068810701D52B2302E0202101EA9D
:100A3000C0038DF820300BB1012000E00020032A14
:100A4000824601D0072A04DB2946204600F0D4F96B
:100A50003FE12078800601D40D2500E0E569C7F369
:100A60000A560D2D49DA00214FEA175B08464FF070
:100A70000000002F00F4400007DA00EB80004FF484
:100A8000400100EBD07001EA60008115012901DD11
:100A90004FF0FF3100224FEA850CBCF1180F06D34E
:100AA0001346ACF118004FF08052C24003E04FF4FF
:100AB000801323FA0CF30CF10C0CBCF1200F04D3BF
:100AC000ACF1200C09FA0CF001E007FA0CF0002957
:100AD0004FF0004801DD18B90FE00ED140450CD3AE
:100AE00019EB02095F4121B9404502D19F4329EA30
:100AF0000209BBEB175F00D0761C2088000502D5E9
:100B00007B48784402E07A487844193808AA3023B0
:100B100002F80A30037C0AF10101002E0AF1020AF0
:100B200053546A4602DC4FF0300101E04FF03101CE
:100B30004FF001088DF8001002D0A6F2FF3603E056
:100B400059EA470100D06B4E002D02DC21780907DD
:100B500004D54FF002082E218DF80110C446002163
:100B60000BE0C7F303433F01C35C491C6D1E02F851
:100B70000830052908F1010801DA002DF1DC002117
:100B80000CE000EB1973491C1B786D1E082902F854
:100B900008304FEA091908F1010801DA002DF0DCEC
:100BA00021688B0602D516E0A8F10108E04505DDB5
:100BB00002EB080313F8013C302BF5D0B8F1000F1D
:100BC00009DD02EB080313F8013C2E2B03D10907C2
:100BD00001D4A8F10108002D05DD3E2102F808101E
:100BE0006D1E08F10108407C002E02F8080008F193
:100BF000010804DA2D20764202F8080002E02B20DA
:100C000002F808000A214FF47A70864208F10108C0
:100C10000BDB96FBF0F3303302F8083096FBF0F371
:100C200008F1010800FB136601E0642E0CDB642070
:100C300096FBF0F3303302F8083096FBF0F308F13E
:100C4000010800FB136601E00A2E06DB96FBF1F0BB
:100C5000303002F8080008F1010896FBF1F001FBC2
:100C60001060303002F80800A16908F1010808EBB3
:100C7000050202EB0A00081AA0612078C00602D41F
:100C80002046FFF7DFFA216A08AE01EB0A00206276
:100C900004E0D4E9012116F8010B9047BAF1010AEA
:100CA000F7D22078C00602D52046FFF7CBFA6E4671
:100CB00009E016F8010B3E280FD0D4E90121904736
:100CC000206A401C2062B8F10108F2D22046FFF7EA
:100CD000CFFA09B00320BDE8F08F206A28442062D3
:100CE00003E0D4E90121302090476D1EEBD3F8E7F3
:100CF000B036000002FCFFFF01694A1C026108785F
:100D0000704700B58FB0CDE901310021059105494B
:100D10007944CDE9031011466846FFF721FB0FB077
:100D200000BD0000E5FFFFFFD1E900239A4202D297
:100D3000531C0B601070704710B5436913B1AFF3CB
:100D4000008001E0FFF7A5FA012010BD127800F144
:100D500024010A7000224A700122EDE711684FF069
:100D6000FF32E9E7004870473000002030B5B0F1AD
:100D70000A0271F100034FEA900E4EEA817EB0EB59
:100D80000E0061EB91014FEA101E4EEA017E10EB5E
:100D90000E0041EB11114FEA102E4EEA016E10EBDE
:100DA0000E0041EB11214FEA104E4EEA014E10EBBE
:100DB0000E0041EB1141401841F100014FEAD00013
:100DC00040EA41704FEAD1014FEA810444EA90744D
:100DD00010EB800544EB01046D1944EB0404521B35
:100DE000A3414FF0000348BF0A3200D530BD401C7C
:100DF00041F1000130BD00002DE9F0411F460446DD
:100E000003260168072A01F4006004DB08B116A577
:100E100005E016A503E008B115A500E015A521F031
:100E200010002060A069C01EA0610FB1401EA0612B
:100E30002046FFF707FA4FB1D4E901213846904721
:100E4000206A401C2062C01C206206E0206AFAE78B
:100E5000D4E9012115F8010B9047761EF8D22046FF
:100E6000FFF706FABDE8F0814E414E006E616E005C
:100E7000494E4600696E66002DE9F04781461646E8
:100E80008AB0354878440DC88DE80D003248784462
:100E9000801C03AC0DC884E80D0041F69B3008446B
:100EA000372190FBF1F290FBF1F5A5F1800501FBF4
:100EB00012041B3C02D56442012000E00020DFF850
:100EC00098A080460027FA44AAF1BE0A0EE0E00787
:100ED0000AD03246684607EB470101230AEB81013D
:100EE00002F085FC8DE8070064107F1C002CEED119
:100EF000194F7F44AE3F19E0E80715D007EB041007
:100F00000DF1180A90E80E008AE80E00C068F04261
:100F100001D1981908903246012306A903A802F0CE
:100F200066FC03AB83E807006D10641C002DE3D161
:100F30004FF0010332466946B8F1000F03A802D012
:100F400002F040FC01E002F052FCC9E90001C9F8DE
:100F500008200AB0BDE8F087C033000000487047A1
:100F6000100000207546FFF7F9FFAE460500694600
:100F7000534620F00700854618B020B5FFF730F93A
:100F8000BDE820404FF000064FF000074FF000088A
:100F90004FF0000BAC46ACE8C009ACE8C009ACE8C7
:100FA000C009ACE8C00921F007018D46704710B5B3
:100FB0000446AFF300802046BDE81040FFF7FCB8C0
:100FC0004FF0013C50F8042B51F8043B9A4221D1D8
:100FD000A2EB0C03934313EACC1317D150F8042B64
:100FE00051F8043B9A4215D1A2EB0C03934313EA48
:100FF000CC130BD150F8042B51F8043B9A4209D181
:10100000A2EB0C03934313EACC13DBD04FF00000A8
:10101000704700BFD01A01BAB1FA81F101F018018E
:1010200022FA01F0CB40DBB2C0B2C01AC1F12001FC
:101030002CFA01F3D11A914311EAC311E6D170479A
:1010400001491820ABBEFEE72600020070470000F1
:1010500040F27800C2F2000000F07EB90146406A1A
:10106000826A12F0500F03D0006A026B08461047E4
:101070000168826A42F400728262896801F4602128
:10108000B1F5602F01D1017B11B100F05FB900BF54
:10109000816A21F480718162816AC90448BF00F0CD
:1010A00055B9816A41F00101816200F04FB9000039
:1010B000406A816A41F040018162C16A41F00401E5
:1010C000C16200F047B90000406A00F041B9000079
:1010D000B0B582B004460020019021688A68D2072A
:1010E0004FD1886840F00100886040F20800C2F2E9
:1010F000000000684DF68361C4F21B31A0FB0101C2
:10110000880C01900198A0B10198013801900198D4
:1011100078B1019801380190019850B101980138D7
:101120000190019828B10198013801900198002898
:10113000EAD100F01DFE21688968C9071CD1054667
:1011400003E000BF8068C0071AD100F011FE411B08
:1011500020680329F6D38168C907F3D1A06A40F05B
:101160001000A062E06A40F00100E062002084F814
:101170002400012002B0B0BD002002B0B0BD00BF0D
:10118000002002B0B0BD0000FEE7000040F2EC001D
:10119000C2F2000000F070BB40F23010C2F200005A
:1011A00000F06ABB70470000EFF3108072B600BF1A
:1011B000FEE700007047000010B581B000220092E9
:1011C00090F82420012A03D10221084601B010BD65
:1011D0004B680122062B80F8242015D8026803EB07
:1011E0008303A3F1050E1F23D2F834C003FA0EF4D3
:1011F0000B682CEA040C03FA0EF444EA0C04546362
:10120000092B17D937E000BF02680C2B20D803EB5D
:101210008303A3F123041F23D2F830C003FA04FE92
:101220000B682CEA0E0C03FA04F444EA0C04146371
:10123000092B20D8D2F810C003EB43030724896898
:101240009C402CEA0404994021431161002136E0BE
:1012500003EB8303A3F141041F23D2F82CC003FA4C
:1012600004FE0B682CEA0E0C03FA04F444EA0C04A6
:10127000D462092BDED903EB4304D2F80CC0A4F1ED
:101280001E0E0724896804FA0EF42CEA040401FAFD
:101290000EF1214323F00104102CD1600ED142F253
:1012A0000841C4F20101A1F10804A2420ED0816AF2
:1012B00041F020018162012101E000BF00210022F4
:1012C00080F82420084601B010BD00BF0A68120251
:1012D00030D40A68102B42F400020A602CD140F28C
:1012E0000801C2F2000109684DF68362C4F21B32A4
:1012F000A1FB0212910C01EB8101490000910099C0
:10130000E1B10099013900910099C9B10099013901
:1013100000910099B1B1009901390091009999B1FA
:10132000009901390091009900294FF00001E8D19E
:10133000C5E700BF0021C2E70021C0E70021BEE7EA
:101340000021BCE70021BAE70021B8E770470000A0
:10135000704700007047000010B5044600684168FF
:10136000890644BF01685FEA81710BD441680906B0
:1013700044BF01685FEA41712AD4416849065BD4E1
:1013800010BD00BFA16AC90603D4A16A41F400716F
:10139000A162816801F46021B1F5602F10D1217B39
:1013A00071B9416821F020014160A06A20F4807089
:1013B000A062A06AC00403D4A06A40F00100A06249
:1013C0002046FFF7C3FF20686FF012010160CDE7F0
:1013D000A16AC90603D4A16A41F40051A1628168DF
:1013E00001F4E041B1F5E04F10D1416821F08001F6
:1013F0004160A06A20F48050A062A06AC00511D4A8
:10140000A06A40F00100A0620CE000BF41684905FD
:1014100008D4816801F46021B1F5602F02D1217BED
:101420000029E2D02046FFF7C5FE20686FF00C01CE
:10143000016041684906A3D50068C00708BF10BD18
:10144000A06A40F48030A062204600F0B3F8206823
:101450006FF00101016010BDB0B5002800F0A88058
:101460000446806A20B121688868C0070BD114E067
:101470000020E06284F82400204600F09DF82168F6
:101480008868C00709D0886820F00100886000F0F3
:101490006FFC21688A68D20726D1A06AC0063AD4B8
:1014A000A06A41F2021290430230A062E069D4E9DE
:1014B000013240EA030C531EB3FA83F35D0913466D
:1014C000B2F5807F18BF2B02207D257B01284CEAD6
:1014D000450030D135B3A56A45F02005A562E56A1F
:1014E00045F00105E56226E0054602E08868C00790
:1014F000D3D000F03DFC401B21680328F6D3886858
:10150000C007F3D0A06A40F01000A062E06A40F08B
:101510000100E062A06AA06A40F01000A062012011
:10152000B0BD00BFD4F818C04EF60005CFF6FF7569
:1015300005EB4C352B434D68B2F5807F25F46945AA
:1015400043EA05034B608B684FF2FD75CFF6E175FA
:1015500003EA050343EA00038B6001D0012A07D1A7
:1015600022690023CFF6F07303EB025201E000BFC3
:101570000022CB6A23F470031A43CA62896840F6DA
:10158000FE62CFF61F721140814207D10020E06257
:10159000A16A012262F30101A162B0BDA06A40F01C
:1015A000100020F00200A062E06A40F00100E0625A
:1015B0000120B0BD7047000070B586B0044640F60B
:1015C0000000C4F20100216800F5E05200269142BB
:1015D0000596049602D006B070BD00BF41F2180116
:1015E000C4F202010A6842F400720A600A6802F456
:1015F00000720192019A0A6842F004020A600968C6
:1016000001F0040101910199132102910321039139
:1016100002A900F09DFA40F2EC050820C2F2000594
:10162000C4F202004FF40072C5E9000605F1100093
:1016300080214FF400634FF0200C80E80C10284606
:10164000C5E90261EE6100F0E5F9002818BFFFF777
:10165000ABFD12200021002225626C6200F0FEFB2F
:10166000122000F0EBFB06B070BD000070B515460F
:101670000446006842F60002C4F2010290420E469F
:1016800005D042F20041C4F20101884209D142F280
:101690000440C4F20100006810F4702F1CBF012048
:1016A00070BD94F82400012804BF022070BD012001
:1016B00084F824002046FFF70BFD18B1002184F8C0
:1016C000241070BD42F204402168A26AC4F20100F5
:1016D00040F601739A4300F57F7302F580729942D8
:1016E000A26243D0A06A20F48010A062486840053E
:1016F00004D5A06A012262F30D30A062A26A002024
:10170000D2044FF0000244BFE26A22F00602E26215
:1017100084F82400206A41F25D02C0F6000241F222
:10172000C90341F2B10C00F1280EC0F60003C0F667
:10173000000C8EE80C106FF002020A608A682B46DB
:1017400042F480728A604C31324600F09FF9206882
:10175000816801F460228168B2F5602F0CBF41F40A
:10176000A00141F480118160002070BD026812F474
:10177000702FB7D0A26A42F48012A26200684005BE
:10178000BCD5B6E7014690F82100022816D10868BA
:10179000D1E90FC3026822F00E020260026822F053
:1017A00001020260012000FA03F2CCF8042081F863
:1017B00021000020002281F8202070470420886347
:1017C0000120002281F820207047000080B590F8A9
:1017D0002110022924D10268116821F00E01116044
:1017E0002F211368C4F202018A4240F20401C4F2BC
:1017F000020123F00103136016DD3023C4F202035B
:101800009A421DD04423C4F202039A421CD05823AA
:10181000C4F202039A421DD14FF4803322E000BF8C
:1018200004218163012080BD0823C4F202039A428F
:101830000ED01C23C4F202039A420BD1102311E0F4
:101840004FF480730EE000BF4FF480530AE000BFF6
:10185000012307E001F1680C4FF08073624508BF77
:101860004FF480130B60416B4FF48072028401B11E
:101870008847002080BD000010B5D0E90FCE016878
:10188000DCF800300A6823FA0EF35C072AD512F060
:10189000040427D00A68920603D40A6822F00402DE
:1018A0000A602F22C4F20202914240F20402C4F202
:1018B000020259DD3023C4F20203994270D044235E
:1018C000C4F20203994271D05823C4F20203994230
:1018D00078D14FF480231360C16A002940F09780CB
:1018E0006EE000BF9C0727D512F0020424D00A68DE
:1018F000920606D40A6822F00A020A60012280F8E1
:1019000021202F22C4F20202914240F20402C4F2CA
:10191000020239DD3023C4F2020399425ED044232F
:10192000C4F2020399425DD05823C4F202039942E3
:101930005ED14FF4003363E01B0741D512F008027B
:1019400008BF10BD0A6822F00E020A60012101FAE8
:101950000EF2CCF804208163016B4FF480720029F1
:10196000028454D12CE000BF0823C4F20203994240
:1019700022D01C23C4F20203994223D140231360D6
:10198000C16A002943D11BE00823C4F20203994233
:101990002CD01C23C4F20203994229D120232FE02A
:1019A0004FF480631360C16A89BB09E04FF4804340
:1019B0001360C16A59BB03E004231360C16A31BBE1
:1019C00010BD00BF02F168044FF08063A14208BF60
:1019D0004FF480031360C16AC9B9F1E74FF4007393
:1019E0000EE000BF4FF400530AE000BF022307E0FF
:1019F00002F168044FF00073A14208BF4FF40013D6
:101A00001360816A0022002980F82020D8D0BDE828
:101A100010400847002804BF012070472DE9F0411D
:101A200001684FF6F872CBF6FD724CF6CD430A44CE
:101A3000CCF6CC43A2FB03236FF0030707EA930322
:101A40000027C4F2020700F1040E00F11008C0E9FB
:101A50000F739EE8045098E870010B6843F6F07726
:101A6000BB431A4342EA0C0242EA0E0222432A43D3
:101A7000324342EA08020A6000214FF48072816317
:101A80000284BDE8F041084670470000F0B590F8C8
:101A900020C0BCF1010F32D090F821C04FF0010EF0
:101AA000BCF1010F80F820E026D14FF0020C80F845
:101AB00021C04FF0000CC0F838C0D0E900C4C56A9E
:101AC000C66BDCF80070102C27F00107CCF8007012
:101AD000006C0EFA00F070600846CCF8043004BFC9
:101AE00010460A46CCF80800CCF80C20DCF80000C0
:101AF00045B140F00E000DE0002180F820100220DA
:101B0000F0BD00BF20F00400CCF80000DCF80000BD
:101B100040F00A00CCF80000DCF8000040F00100C2
:101B2000CCF800000020F0BDB0B5044600F020F96C
:101B3000054640F20000C2F200000078611C18BFA8
:101B4000044400BF00F014F9401BA042FAD3B0BD1A
:101B50002DE9F04F82B041F20042C4F201020E685A
:101B60000423904208BF0323002E009300F0F68068
:101B700040F20C4E4FF6FF7CC4F2010E002201240D
:101B8000C1F2100C4FF0000A4FF0000943E000BF13
:101B9000012502F00C040F27A7402BEA070705FADE
:101BA00004F43C4343F82640D1F804B040F2004529
:101BB000C4F201055FEACB332B6854BF23EA080364
:101BC00043EA08032B606B685FEA8B3454BF23EA57
:101BD000080343EA08036B605FEACB24AB6854BF99
:101BE00023EA080343EA08035FEA8B24AB60DEF8CC
:101BF00000304FF0010454BF23EA080343EA08030E
:101C0000CEF800300E680AF1010A36FA0AF302F142
:101C1000040200F0A38004FA0AF816EA080FF1D0D3
:101C20004B68634512DC122B56D8DFE803F0350B06
:101C30004549555555555555555555555555554D78
:101C4000510000BFD1F80C9046E000BF4FF6FF777F
:101C5000C1F22107BB420FDC0027C1F21107BB42D2
:101C60001AD00027C1F21207BB4215D00027C1F2DB
:101C70002107BB4210D02FE00027C1F22207BB4250
:101C80000AD00027C1F23107BB4205D00027C1F2BC
:101C90003207BB4220D100BF8B684BB1012B14BF70
:101CA000C0F81480C0F810804FF0080914E000BF9D
:101CB0004FF0040910E000BFCB6803F108090BE006
:101CC0004FF0000908E000BFCB6803F1040903E00E
:101CD000CB6803F10C0900BF13460546BAF1080FA3
:101CE00024BF203B04352E680F279F40BE4309FACE
:101CF00003F333432B60CB79DB067FF583AF41F2EF
:101D00001804C4F2020423684FEA9A0643F0010360
:101D10002360236840F6000403F001030193019B54
:101D200040F20043C4F20103A3F57E7353F826B0DA
:101D3000C4F20104A0420FD040F60044C4F20104F2
:101D4000A0423FF425AF41F20004C4F20104009D1B
:101D5000A04208BF02251CE700251AE702B0BDE833
:101D6000F08F0000002A08BF0904016170470000DD
:101D700040F27410C2F200000068704740F20000A8
:101D800040F27411C2F20000C2F2000100780A6849
:101D9000104408607047000080B542F20000C4F2B1
:101DA0000200016841F010010160032000F082F898
:101DB0000F2000F005F800F027F8002080BD00009B
:101DC00070B540F20006C2F2000640F20801327817
:101DD000C2F200014FF47A730968B3FBF2F20446D1
:101DE000B1FBF2F1084600F0DDFB0F2C4FF00105CE
:101DF00008D838B94FF0FF3021460022002500F006
:101E00002DF87460284670BD82B041F21800C4F20B
:101E10000200016841F001010160016801F0010167
:101E200001910199416841F080514160406800F0A2
:101E300080500090009802B070470000002848BF12
:101E4000704700F01F01012202FA01F14EF2001268
:101E50004009CEF2000242F82010704710B54EF64D
:101E60000C5CCEF2000CDCF80030C3F3022E8EF0D6
:101E70000704042C28BF0424BEF103034FF0FF3EE7
:101E80000EFA04F438BF0023A14399400EFA03F37D
:101E90009A43114300F00F02043A624409010C32E4
:101EA00000F16043B0F1FF3FC8BF03F56442117019
:101EB00010BD00004EF60C51CEF200010A684FF63C
:101EC000FF031A4060F30A2242F0806040F0FD7088
:101ED000086070472DE9F04182B00446007841F275
:101EE0001C06C007C4F202064AD0306810F08058C1
:101EF00008D1306840F080503060306800F0805089
:101F00000190019847F20007C4F200073868C00545
:101F100012D4386840F480703860FFF729FF054616
:101F20003868C00508D4FFF723FF401B6428F7D9A1
:101F3000032002B0BDE8F081706810F4407012D048
:101F4000616801F4407188420DD0706840F24042EF
:101F5000C4F24222012320F4407113600023C00721
:101F6000136071602AD17068616820F44070084382
:101F7000B8F1000F706003D1306820F080503060FD
:101F80002068810707D556F8181CA26821F4404143
:101F9000114346F8181CC00604D4002002B0BDE866
:101FA000F08100BF56F8180CE16820F48000084367
:101FB00046F8180C002002B0BDE8F081FFF7D8FE0B
:101FC000054641F2883700BF70688007CBD4FFF721
:101FD000CFFE401BB8424FF00300F5D9EBE70000FD
:101FE0002DE9F04381B0002800F0858042F200081E
:101FF000C4F202080446D8F800000D4600F00700BD
:1020000088420CD2D8F8000020F007002843C8F816
:102010000000D8F8000000F00700A8426BD120684B
:1020200041F204098107C4F2020917D5410705D519
:10203000D9F8001041F4E061C9F80010010705D596
:10204000D9F8001041F46051C9F80010D9F8001017
:10205000A26821F0F0011143C9F80010C00741D176
:10206000D8F8000000F00700A8420CD9D8F800000A
:1020700020F007002843C8F80000D8F8000000F05E
:102080000700A84237D12068410707D5D9F80010CA
:10209000E26821F4E0611143C9F80010000708D597
:1020A000D9F80000216920F4605040EAC100C9F865
:1020B0000000D9F8002002F00C00082841F20020AE
:1020C000C0F27A0050D144F27A23C2F38341C0F6C1
:1020D0000003595CD2033BD440F60010C0F23D002F
:1020E000484341E0606802280AD001282AD159F803
:1020F000041C890308D4012001B0BDE8F08300BFAF
:1021000059F8041C8901F6D5D9F8001021F0030113
:102110000843C9F80000FFF72BFE064641F2883756
:10212000D9F80000616800F00C00B0EB810F97D087
:10213000FFF71EFE801BB842F2D9032001B0BDE8B4
:10214000F08300BF59F8041C8907D4D5DCE700BF31
:10215000D9F8002044F26023C2F34042C0F60003E5
:102160009A5C4843B0FBF2F0D9F8001044F26222C6
:10217000C1F30311C0F60002515C40F2080220FADC
:1021800001F140F20400C2F200000068C2F2000255
:102190001160FFF715FE002001B0BDE8F0830000DC
:1021A00040F2080041F20401C2F20000C4F2020150
:1021B0000068096844F27222C1F30221C0F60002ED
:1021C000515CC8407047000040F2080041F2040131
:1021D000C2F20000C4F202010068096844F27222EF
:1021E000C1F3C221C0F60002515CC8407047000034
:1021F0002DE9F04182B0002868D00446007841F211
:102200000006C007C4F2020625D0706800F00C007A
:1022100004281BD0706800F00C00082802D17068F8
:10222000C00313D46068002800F06881B0F5A02FC7
:1022300000F07C81B0F5803F00F07C81306820F4B4
:1022400080303060306820F4802076E13068800390
:1022500001D56068D0B32078800718D5706810F079
:102260000C0F07D0706800F00C0008286ED1706861
:10227000C0036BD43068800702D52069012825D1BE
:102280003068616920F0F80040EAC10030602078D1
:1022900000071FD42078400732D4E56995B17068F3
:1022A00000F00C00082840F08F80012D0ED07068DF
:1022B000216A00F480328A4208D1616A00F4701009
:1022C000884203D1002002B0BDE8F081012002B0B5
:1022D000BDE8F081A069002862D00020C4F242204D
:1022E0000121C0F88014FFF743FD0546706A80079E
:1022F00000F18C80FFF73CFD401B0228F6D92AE153
:10230000F06910F0805808D1F06940F08050F06119
:10231000F06900F080500090009847F20007C4F286
:1023200000073868C00529D4386840F480703860E8
:10233000FFF71EFD054600BF3868C0051ED4FFF735
:1023400017FD401B6428F7D905E100BF206900286C
:1023500040F20000C4F2422000F0828001210160BE
:10236000FFF706FD054600BF306880073FF588AFE0
:10237000FFF7FEFC401B0228F6D9ECE0E0680028DD
:1023800000F08080052800F09780012800F09880F8
:10239000306A20F001003062306A20F0040092E0E0
:1023A0000020C4F242200021C0F88014FFF7E0FCB6
:1023B000054600BF706A80077FF56CAFFFF7D8FC59
:1023C000401B0228F6D9C6E00027C4F242270020AD
:1023D0003866FFF7CDFC022D05460BD13068800131
:1023E00040F1BE80FFF7C4FC401B02284FF0030001
:1023F000F4D968E7306880017FF564AFFFF7B8FC77
:10240000401B02284FF00300F4D95CE740F20800BB
:10241000C2F20000006844F6D351C1F26201A0FB91
:102420000101480A019000BF00BF0198411E002829
:1024300001913FF42FAF00BF0198411E0028019188
:102440003FF428AF00BF0198411E002801913FF4DE
:1024500021AF00BF0198411E00280191E4D119E786
:1024600000210160FFF784FC054600BF306880074B
:102470007FF50DAFFFF77CFC401B02284FF00300F7
:10248000F4D920E7306A20F001003062306A20F091
:1024900004003062FFF76CFC054641F2883700BF4C
:1024A000306A800720D5FFF763FC401BB8424FF02D
:1024B0000300F5D907E700BF306A40F0040030623E
:1024C000306A40F001003062FFF752FC054641F2ED
:1024D000883700BF306A800706D4FFF749FC401BED
:1024E000B842F7D937E000BFB8F1000F7FF4D5AE9E
:1024F000F06920F08050F061CFE600BF306820F432
:1025000080303060306820F480203060FFF730FC8D
:10251000054600BF306880037FF59DAEFFF728FCBD
:10252000401B64284FF00300F4D9CCE6306840F437
:1025300080203060306840F480303060FFF718FC55
:10254000054600BF306880033FF585AEFFF710FCFD
:10255000401B6428F6D9032002B0BDE8F08100BF1B
:10256000206AB0F5803F05D17168A26821F400317E
:10257000114371607168626A21F474111043084359
:10258000706001203866FFF7F3FB04463068800175
:102590003FF598AEFFF7ECFB001B02284FF003005D
:1025A000F4D990E6411E0020B0EB116F1CBF012052
:1025B00070474EF21002CEF2000251604EF62351E7
:1025C000CEF20001F0230B7007219060116070477C
:1025D0007047000070470000B0B582B00268054641
:1025E0001068D368546900F02F01202903F02001FE
:1025F00006D129B1284602B0BDE8B04000F0A0BB2A
:102600005FEA007C1EBF04F0010E03F4907414EB2B
:102610000E0455D1296B012905D110F0100118BF06
:1026200013F0100136D1010622D513F080011FD01E
:1026300095F83D00212841D1A868B0F5805F03D10D
:102640002869002800F0F680286A411C2962007879
:102650005060E88C01380104E8842FD1D06820F064
:102660008000D060D06840F04000D06002B0B0BDC3
:10267000400623D513F0400020D0D068202120F060
:102680004000D060284685F83D1002B0BDE8B0405B
:1026900000F0DABA002001901068019050680190B3
:1026A00001985069400613D4A88DE98DEB8D002B5D
:1026B0001CBF401A5FEA004140F0A48002B0B0BDE8
:1026C000C40718BF13F480732CD1430730D436E00D
:1026D000A86B01684B689CB2002CEFD0A98D8C428E
:1026E000ECD2EB858369202B17D0D16821F480715F
:1026F000D160516921F001015161516921F040011E
:102700005161202185F83E1000212963D16821F014
:102710001001D160FFF736F8A98DE88D081A81B253
:10272000284682E02B6C43F001032B64430706D557
:10273000BEF1000F03D02B6C43F002032B64830720
:1027400006D5BEF1000F03D02B6C43F004032B64BD
:10275000BCF1000F06D551EA0E0303D02B6C43F0F9
:1027600008032B642B6C002BA8D010F0200018BF9E
:10277000002903D0284600F0E3FA2A685069296C42
:1027800000F0400001F0080140182DD0D06820F47E
:102790009070D060506920F001005061286B0128D2
:1027A00003D1D06820F01000D060202085F83E00D2
:1027B00000202863506940061ED5506920F0400073
:1027C0005061A86BC0B142F66941C0F60001416397
:1027D000FEF7FCFF00283FF471AFA86B416B02B01D
:1027E000BDE8B040084700BF2846FFF7F3FE0020D1
:1027F000286402B0B0BD00BF284602B0BDE8B040BA
:10280000FFF7E8BED16821F49071D160516921F0E1
:1028100001015161202185F83E1000212963D16812
:1028200021F0100381B22846D36002B0BDE8B04069
:10283000FFF7CEBE286A30F8021B6FF35F215160AC
:10284000286206E7002804BF0120704710B504463F
:1028500090F83D0028B9002084F83C00204600F0A4
:102860005FF8242084F83D002068D4E90212C36890
:1028700023F40053C360036923F440531A430261F5
:10288000D4E904231143C268194341F20C639A430B
:102890001143C1604169A26921F44071114343F6BB
:1028A0000002C4F201029042416103D0FFF778FCBC
:1028B00002E000BFFFF788FC6268192148439100DD
:1028C000B0FBF1F048F21F51C5F2EB11A0FB012360
:1028D0005A096FF0630302FB0300322303EB00107D
:1028E000A0FB0101F02303EA5113206803EB02125D
:1028F000C1F3431111448160016921F490410161E8
:10290000416921F02A014161C16841F40051C1606F
:1029100000202021206484F83D1084F83E1010BD72
:10292000F0B585B040F600050446C4F20105006824
:10293000A5F5444100278842039701D005B0F0BDBA
:1029400041F21800C4F20200416801AE41F40031C6
:102950004160416801F4003100910099016841F043
:10296000040101600068314600F004000090009806
:102970000420019002200290032004902846FFF7D3
:10298000E7F80820CDE90107284631460397FFF70D
:10299000DFF840F230156C20C2F20005C4F20200EC
:1029A00080212022C5E900072846C5E90271C5E952
:1029B0000477C5E90627FFF72DF8002818BFFEF7B2
:1029C000F3FB262000210022A5636C62FFF746FA84
:1029D0002620FFF733FA05B0F0BD000070B582B0D5
:1029E000054690F83E0020280ED113460A460029DD
:1029F0004FF0010418BF002B02D1204602B070BD79
:102A000095F83C00012803D10224204602B070BD95
:102A1000012085F83C00002422202C63AA62AB85AB
:102A20002C6485F83E002968A86B42F6E14C42F61A
:102A30002D5E42F67546C0F6000CC0F6000EC0F6DC
:102A400000060431C0E90ACEC0E90C64FFF71EF8A5
:102A5000019428680168019141680191019985F804
:102A60003C40C16841F48071C160416941F001019D
:102A70004161416941F040014161204602B070BDB1
:102A800040F27001C2F2000101F138000522FFF7A7
:102A9000A5BF0000704700002DE9F04381B0044657
:102AA00090F83D0020280DD10F4600294FF001007D
:102AB00000F092801646002A00F08E8094F83C00C8
:102AC000012803D1022001B0BDE8F083012084F881
:102AD0003C004FF0000921201D46C4F8409084F8C6
:102AE0003D00FFF745F9A684E684A1688046B1F56C
:102AF000805F25D1206900281CBF38464F463E46DE
:102B0000074684F83C90E08C00B3681C20D0002D70
:102B100066D120680BE000BF36F8021B00276FF378
:102B20005F214160E18C0139E184E18C81B301686E
:102B3000090675D5002FEFD017F8011BF1E700BF8C
:102B4000002684F83C90E08C0028DED120681FE04D
:102B5000206802E00168090609D40168090606D464
:102B6000016809065CBF01685FEA0161F2D51FB127
:102B700017F8011B05E000BF36F8021B00276FF3B2
:102B80005F214160E18C0139E184E18C0029E4D1CD
:102B9000016849061CD4002D42D0691C0ED1016881
:102BA000490615D4016849065CBF01685FEA4161C6
:102BB0000ED401684906F2D50AE000BFFFF7D8F845
:102BC000A0EB08012068A9422AD800684006F5D584
:102BD000202084F83D00002001B0BDE8F08300BF54
:102BE000206800BF0168090608D4FFF7C1F8A0EB10
:102BF00008012068A942F5D912E000BF17B117F803
:102C0000011B04E036F8021B00276FF35F214160CF
:102C1000E18C0139E184E18C0029E3D1B8E700BF00
:102C2000C16821F4D071C160416921F001014161A5
:102C3000202084F83D0084F83E00002084F83C0009
:102C4000032001B0BDE8F08370470000FEE70000FC
:102C5000FEE70000FEE7000070470000704700003C
:102C6000FFF78CB870470000406A0021C185C1841D
:102C7000FFF7B0BC406A01684A6990F83D30212BEB
:102C80000BD112F0800208D00022C284CA6822F060
:102C9000C002CA60202280F83D204A6990F83E3088
:102CA000222B17D112F0400214D00022C285CB682B
:102CB00023F49073CB604B6923F001034B61036BEA
:102CC000012B03D1CB6823F01003CB60202180F8C7
:102CD0003E100263016C41F010010164FFF77ABC01
:102CE0000168406A0968890618D40021C185016815
:102CF000CA6822F48072CA604A6922F001024A61FD
:102D00004A6922F040024A61202280F83E20026B8C
:102D1000012A03D1CA6822F01002CA60016B01299E
:102D200018BFFFF7ADBE818DFFF752BC406A016B43
:102D3000012918BFFFF7AEBE818D4908FFF748BCD7
:102D400081B090F83E10222920D18368B3F5805FCE
:102D500008D10169002941D000F128010A680368FF
:102D60005B680AE0014651F8282F13B90369002B6C
:102D7000F5D003685B6803F07F0313700A680132C3
:102D80000A60C18D01390A04C18501D001B07047C4
:102D90000168CA6822F02002CA60CA6822F4807200
:102DA000CA604A6922F001024A61202280F83E206E
:102DB000026B012A1CD100220263CB6823F01003AE
:102DC000CB600B68DB0605D500920A680092496863
:102DD00000910099818D01B0FFF7FABB0168826A0A
:102DE00049686FF35F2122F8021B8262C9E700BFC6
:102DF00001B0FFF745BE000040F2A800C2F200009B
:102E0000FFF7EABBFEE70000E2B0FEF7C5FF0024D3
:102E10000120CDE95044CDE94E444F9010200225C9
:102E200050904BA8CDE94C442694CDE924444B95D1
:102E3000CDE952545494FFF7DBF928B1EFF3108039
:102E400072B600BFFEE700BF0F20CDE937054FF493
:102E50008060CDE93A0437A800213994FFF7C0F823
:102E600020B1EFF3108072B6FEE700BF4FF0020B07
:102E70004FF0000823A8CDF88CB0CDF89480FFF770
:102E800029F828B1EFF3108072B600BFFEE700BF4B
:102E900041F21807C4F20207386840F6000A40F011
:102EA000040038603868C4F2010A00F004004B9056
:102EB0004B983868E02140F01000386038680022F4
:102EC00000F010004B904B983868E02440F0080068
:102ED0003860386800F008004B904B985046FEF779
:102EE00041FF0AF50066304680210022FEF73AFFD6
:102EF0000AF58069484640210022FEF733FF4B94D3
:102F000001254CA84BAC80E8200950462146FEF72D
:102F10001FFE80204BA981E82109304621460696F4
:102F2000FEF716FE40204BA981E8210948462146BC
:102F30000124FEF70DFE57F8040C002140F00100BB
:102F400047F8040C57F8040C002200F001004B90E5
:102F50004B980B20FEF782FF0B20FEF76FFF10202F
:102F600000210022FEF77AFF1020FEF767FF40F2F3
:102F7000700BC2F2000B0AF5E051584640F8081FEA
:102F80004FF480714FF46022C0E901810321047382
:102F900080F81480C2610161FEF75EFA20B1EFF3A0
:102FA000108072B6FEE700BF0020CDE94B04072079
:102FB0000BF108064D904BA93046CDF81490FEF762
:102FC000FBF828B1EFF3108072B600BFFEE700BF38
:102FD00001204B9002204C904BA93046FEF7ECF8B4
:102FE00020B1EFF3108072B6FEE700BF04204B90D3
:102FF00003204C904BA93046FEF7DEF820B1EFF3EA
:10300000108072B6FEE700BF40F60000C4F2010077
:10301000A0F54441584640F8381F4FF4165100259A
:103020000C22C0E90115C0E90355C0E90525C561B9
:10303000FFF708FC20B1EFF3108072B6FEE700BF87
:103040005FA930460322FEF711FB0BF13800594609
:1030500005220490FFF7C2FC0A200E9047F6734049
:10306000C7F225300D9047F22530C2F27C50CDE9F1
:103070000B5042F62560C6F232600A907920099022
:1030800046F66550C7F27040089047F225304FF081
:1030900064080DF18C0A079047E000BF204600F05D
:1030A00003FF0B460090384650210AAA0193FDF712
:1030B000A9F8254640F60004C4F201042046402148
:1030C0000022FEF74FFE204620210022FEF74AFE96
:1030D00000212846C4F2701100F034FF402100287E
:1030E00018BF202120460122FEF73CFE9BF8040079
:1030F0004BAC01284FF47A7520464FF050010CAAD2
:10310000534608BF40F6B83500960197FDF77AF8A8
:103110002046FDF7E9F982B2049821464FF0FF33CB
:10312000FFF7BAFC2846FEF7FFFC5F9840F2011457
:1031300000FB08F0C0F21004A0FB0412801A02EB9E
:103140005000DDE96065C00A00F044FF642106FB21
:1031500001F8A8FB04128146A8EB020002EB500024
:10316000C00A00F037FF0646284600F035FE4BF651
:10317000520249F2EB13C8F21E52C4F2280300F0C7
:10318000D1FC00F09DFC4AF6A571C0F2050188450E
:1031900004463FD3069D802128460022FEF7E2FD2B
:1031A000059840210022FEF7DDFD40F60000C4F244
:1031B000010080210022FEF7D5FD28468021012252
:1031C000FEF7D0FD0FAF4FF064089BF80100012817
:1031D00052D1304600F068FE0B4600905046502118
:1031E0000AAA0193FDF70EF89BF8020001284DD1C1
:1031F000484600F059FE37AE0B460090304650214D
:103200000AAA0193FCF7FEFF9BF8030001283FF494
:1032100045AF47E041F21F00CFF6FE7008EB000516
:1032200006988021002203962646FEF79BFD059F07
:1032300040F60004384640210022C4F20104FEF7A3
:1032400091FD204680210022FEF78CFD4AF6C470D5
:10325000C0F203000122854287BF20468021384604
:103260004021FEF77FFD3446039E4FF064080FAF08
:103270009BF801000128ACD05046502107AA08ABAA
:10328000FCF7C0FF9BF802000128B1D037AE3046F2
:10329000502107AA08ABFCF7B5FF9BF803000128F3
:1032A0003FF4FCAE3846502107AA08ABFCF7AAFF52
:1032B00040F60004C4F20104204640210022FEF73B
:1032C00051FD2046202100220EE75FEA400C08BF96
:1032D00091F0000F4FEA8C234FEAC12243EA51518B
:1032E0004FEA1C5018BF00F5F0404FEA300018BFFD
:1032F00041F000415FEA6C5C00F02980BCF1FF3FC7
:1033000008BF40F080407047130C06BF12044FF016
:10331000100C4FF0000C130E04BF12020CF1080C3D
:10332000130F04BF12010CF1040C930F04BF9200A1
:103330000CF1020CD30F04BF52000CF1010C11462A
:103340004FF00002A0F11F00A0EB0C00704711F03D
:10335000004F08BF704731F000413FF4D5AF0B0C70
:1033600006BF09044FF0100C4FF0000C0B0E04BF09
:1033700009020CF1080C0B0F04BF09010CF1040C3D
:103380008B0F04BF89000CF1020CCB0F04BF490066
:103390000CF1010CCCF1200322FA03F341EA030102
:1033A00002FA0CF2A0EB0C0000F1010070470000E3
:1033B00023F07F4720F07F4C80EA030000F00040BC
:1033C000ACEB070303F57C5303F1FF032DE98049C0
:1033D00009B44FEA144324EA03484FEA154B25EA9F
:1033E0000B4E0FF2042606EB13273E7803FB06670D
:1033F000C7F5000707FB06F64FEAD64606F10206B8
:103400004FEA543707FB066CCCF1005C4FEA1C47CF
:103410002CEA074C0CFB06F507FB06F404EB1546FB
:103420004FEA961649085FEA320234BF00204FF097
:1034300000404FEAD13706FB07FC4FEA1C4C0CFB5F
:103440000BF7D21B03FB0CF761EB07010CFB0EF72C
:10345000B0EB074072EB17420CFB08F734BFA2EB4E
:103460000742B2EB074261EB17414FEA0C444FEAC7
:10347000910706FB07FC4FEA1C4C0CFB0BF7B0EB6B
:10348000C74072EB573203FB0CF734BFA2EBC742C5
:10349000B2EBC74261EB57310CFB0EF7B0EBC70044
:1034A00072EB57720CFB08F734BFA2EBC702B2EB0A
:1034B000C70261EB57714FEA816141EA92114FEA0D
:1034C000826242EA90124FEA806004EBCC04039FD0
:1034D0004FEAD13706FB07FC4FEA1C4C0CFB0BF7FD
:1034E000D21B03FB0CF761EB07010CFB0EF7B0EBF3
:1034F000074072EB17420CFB08F734BFA2EB074200
:10350000B2EB074261EB17414FEA8C5504EB9C2468
:103510004FEA910706FB07FC4FEA1C4C0CFB0BF72C
:10352000B0EBC74072EB573203FB0CF734BFA2EB92
:10353000C742B2EBC74261EB57310CFB0EF7B0EB61
:10354000C70072EB57720CFB08F734BFA2EBC7023F
:10355000B2EBC70261EB57714FEA816141EA921108
:103560004FEA826242EA90124FEA806015EB4C25E6
:1035700044F100044FEAD13706FB07FC4FEA1C4C2C
:103580000CFB0BF7D21B03FB0CF761EB07010CFBE9
:103590000EF7B0EB074072EB17420CFB08F734BF95
:1035A000A2EB0742B2EB074261EB17414FEA8131D0
:1035B00041EA92414FEA823242EA90424FEA803039
:1035C0004FEA0C7615EB1C1544F1000448EA03435E
:1035D0004EEA0B484FF0000EB2EB080C71EB0307FC
:1035E00024BF624639464EEB0E0E4FF0000B00181A
:1035F000524149414BEB0B0BB2EB080C71EB03074B
:103600007BF1000B24BF624639464EEB0E0E4FF0A5
:10361000000B0018524149414BEB0B0BB2EB080C6D
:1036200071EB03077BF1000B24BF624639464EEB7A
:103630000E0E51EA020718BF46F0010616EB0E7691
:1036400055F1000254F1000103D5BDE88901BDE840
:103650000088BDE88901BDE80048B619524141EB38
:103660000101A3F10103704780807F7E7D7C7B7A1E
:103670007978777676757473727171706F6E6E6D1E
:103680006C6C6B6A6A6968686766666564646363C4
:1036900062616160605F5F5E5E5D5D5C5C5B5B5A4A
:1036A0005A595958585757565655555554545353B7
:1036B00052525251515050504F4F4F4E4E4D4D4D12
:1036C0004C4C4C4B4B4B4A4A4A494949484848475D
:1036D000474747464646454545444444444343439B
:1036E00043424242424141419C46002B30D4770044
:1036F0002BD04FEA37071CB503B44FF010004FF042
:103700001001BAF1000F06D0BCF1000FDCBF40F091
:10371000080040F008014FF000000FBCBDE8104069
:103720000BF1010BBBF1010F08BF5FEA170722BFC6
:1037300012F1010211F101014FF0004143F10003C8
:1037400000F0004043EA00007047F9D35708D0E783
:1037500046EA06464FEA164613F1400F1FDD13F105
:10376000200FDFBF16430A46002120335B42BED044
:10377000C3F1200746EA06464FEA164602FA07F763
:1037800046EA070622FA03F2C3F1200701FA07F717
:1037900042EA070221FA03F14FF00003A7E746EAE5
:1037A000020646EA06464FEA164646EA0106BCBF4E
:1037B00046EA0646360C4FF000034FF000024FF089
:1037C000000194E72DE9804C70B49A46934691E845
:1037D000380007C831EA400C48BF34EA430C03D52F
:1037E000FFF7E6FDFFF780FFF0BCBDE8008C2DE998
:1037F000804C70B49A46934691E8380007C810F0A0
:10380000804F08BF13F0804F03D100F005F8FFF799
:103810006BFFF0BCBDE8008C20F07F4723F07F4CAD
:1038200080EA030000F0004007EB0C03A3F57C5393
:10383000A3F1FE0392F0000F00F0B38095F0000FAB
:1038400000F077802DE901494FEA114021EA004854
:103850004FEA144624EA064700FB06FC08FB06F67E
:1038600007FB08F818EB06484CEB164C00FB07F773
:1038700018EB07484CEB17404FEA124B22EA0B4E6D
:103880004FEA154625EA06470BFB06FC0EFB06F63B
:1038900007FB0EFE1EEB064E4CEB164C0BFB07F720
:1038A0001EEB074E4CEB174B18EB0B0840F10000DA
:1038B00018EB0E0B58EB000840F100008F1A4FF088
:1038C00000014FF000063CBFC943661B14BFB5EBB7
:1038D000040C00213CBFC943F61B4FEA174427EAFA
:1038E00004454FEA1C472CEA074C04FB076205FB22
:1038F00007F70CFB05F616EB074642EB174204FBF5
:103900000CFC16EB0C4642EB1C421BEB060658EB7C
:10391000020241414EEA8E0E46EA9E0601D5BDE8FE
:103920000189B619524141EB0101A3F10103BDE840
:1039300001894FEA144524EA05464FEA114721EA76
:10394000074C05FB07F406FB07F70CFB06F111EB30
:10395000074144EB174405FB0CFC11EB0C4144EB15
:103960001C444FEA124722EA074C05FB07F206FB0C
:1039700007F70CFB06F616EB074642EB174205FB72
:103980000CFC16EB0C4642EB1C456A1854F1000186
:1039900048BF7047B619524141EB0101A3F1010341
:1039A000704795F0000F37D04FEA114221EA0246E6
:1039B0004FEA144724EA074C02FB07F106FB07F71E
:1039C0000CFB06F414EB074441EB174102FB0CFC23
:1039D00014EB0C4441EB1C414FEA154725EA074C18
:1039E00002FB07F506FB07F70CFB06F616EB07468E
:1039F00045EB174502FB0CFC16EB0C4645EB1C4255
:103A0000121951F1000148BF7047B619524141EBFC
:103A10000101A3F1010370474FEA144524EA05466A
:103A20004FEA114721EA074C05FB07F106FB07F7B0
:103A30000CFB06F212EB074241EB174105FB0CFCB5
:103A400012EB0C4251EB1C414FF0000648BF70478F
:103A5000921841EB0101A3F101037047490050EABC
:103A6000C12018BF04204A0D18BF40F0010040F2E9
:103A7000FF72B2EB515F08BF40F00200012808BF9F
:103A80000520704730380A2801D2012070470020F5
:103A90007047000010B500290AD00878002807D028
:103AA00005487844FDF78CFA002801D0002010BDAD
:103AB0000248784410BD00000A0800000208000017
:103AC00021F0004201F00043A2F16052B2F5801FE4
:103AD00028BFD2F17F6C0BD95FEA001C43EAC20217
:103AE00042EB507018BF704728BF20F001007047AC
:103AF000B2F5801FBCBF184670474FEA410C1CF559
:103B0000001F02D2084600F027BB70B500F077F91D
:103B100000000089FFF7F6BF4FF00040A0F58000DD
:103B2000704700002DE9C04130B4DFF8A4C23CEA80
:103B3000111418BF3CEA131400F0ED801CEA1114B4
:103B400081EA030544EAD57418BF1CEA131500F096
:103B5000C880A4EB050404F17F7404F500344FF031
:103B6000004545EAC12145EAC32341EA505143EAF1
:103B700052534FEAC0204FEAC222994208BF9042F6
:103B800000F09D804FEA13650FF24416765D4FEA10
:103B9000134506FB05F7C7F1807706FB07F74FEAE9
:103BA000D737A7FB03687642A7FB06CEC8F5803857
:103BB00038BFA8F1010807FB08E6A6FB028C4FF00E
:103BC000000EE6FB03CEDCF1000CCEF1004E38BF58
:103BD000AEF1010EA6FB0C584FF00007E6FB0E8776
:103BE000A1FB08C6A0FB07CE16EB0E064FF00005A2
:103BF00045F10005E1FB076515F1E04E7EBFA4F538
:103C000080345FEA46066D4116F1800745F10005F4
:103C10004FEA172747EA05674FEA15254FEA066678
:103C2000A6F1DE46B6F1805F20D9384605EBC471B7
:103C300024F0010C01EB0C11BCF1FE6F02D8F0BCBA
:103C4000BDE8008124425CBF01F5801E9EEAC47F6E
:103C500002D4F0BCBDE80081244200F13980A1F11A
:103C6000C041F0BCBDE8004100F017B94FEAD020D8
:103C700040EA41504FEAD1214FEAD22242EA435270
:103C80004FEAD323A7FB028607FB036605FB026608
:103C90001EEA0E0F58BFA6EB0056B6EB00564FEAD1
:103CA000520E4EEAC37E18EB0E0E56EB530EBCD5E9
:103CB00018EB02085E417F1C55F10005B5E74FF493
:103CC00080154FF000074FF000064FF00008ACE7FA
:103CD00001F1C04101F000414FF00000F0BCBDE82F
:103CE00000810CEA131511EA0C1F00D00CE013EA56
:103CF0000C1F00F026804FF0000081EA030101F064
:103D00000041F0BCBDE80081F0BCBDE8004181EAA3
:103D1000030100F0C2B8F0BCBDE8004170B500F08E
:103D20006EF800BF097EFC3E00F007B84FF00000BF
:103D300081EA030101F00041704781EA030100F0CC
:103D4000ACB8F0BCBDE8004122494FF0000070471C
:103D5000FFFDFBF9F7F5F4F2F0EEEDEBE9E8E6E450
:103D6000E3E1E0DEDDDBDAD8D7D5D4D3D1D0CFCDD7
:103D7000CCCBCAC8C7C6C5C4C2C1C0BFBEBDBCBB10
:103D8000BAB9B8B7B6B5B4B3B2B1B0AFAEADACAB0B
:103D9000AAA9A8A8A7A6A5A4A3A3A2A1A09F9F9EE5
:103DA0009D9C9C9B9A999998979796959594939397
:103DB000929191908F8F8E8E8D8C8C8B8B8A89892E
:103DC00088888787868585848483838282818180B1
:103DD0000000FF070000F87FB0FA80F310FA03F14B
:103DE0000AD0C3F11D0303F580634FEA03524FEA83
:103DF000415002EBD12170474FF0000070470EF1A7
:103E0000020E2EF0030E5EF8046B364205D4012A32
:103E100043EB030515F5001F12D8012841EB010CF7
:103E20001CF5001F0CD80ED14FEAD17C0CEB4C0CCA
:103E30000CF1020C15F5001F08BF4CEBD37C04E01D
:103E40004FF0080C01E04FEAD37C0CEB4C0526FA4E
:103E500005F606F00706B6F1040C06D20EEB860C4A
:103E6000BDE870404CF0010C6047DFE80CF0090B36
:103E700002024FF00041A1F500214FF0000070BD9B
:103E800019461046012851EB010418BFD4F500145F
:103E900084BF002001F0004170BD0808A0F50011AA
:103EA0004FEA31017047000043004FEAD30C4FEA5C
:103EB0003C0C43401FBF40070CF1605113F0FE4F14
:103EC00070471CF0006F03D10CF0004100207047D8
:103ED0000CF0004343EA507040EACC0010B500F00B
:103EE000F5F800BF000000924FEA0001FFF7D5BFD0
:103EF0004FF00041A1F500214FF00000704710B5D0
:103F000000F034F80CBF0120002010BD10B500F007
:103F10002DF814BF0120002010BD10B500F06EF880
:103F20008CBF0120002010BD10B500F067F82CBF39
:103F30000120002010BD10B500F094F894BF0120BE
:103F4000002010BD10B500F08DF834BF0120002016
:103F500010BD401058BFC0F14040491058BFC1F1DA
:103F600040418142EFF300807047000050EA010CAD
:103F700000F113801CF5000F58BFBCF5000F01D4F1
:103F80008842704707D710F5000F58BF11F5000F92
:103F900015D488427047894270471CF5000F04D53C
:103FA000BCF5000FF7D5814270474FF0807C1CEBC9
:103FB000400F38BF1CEB410F01D28142704710B552
:103FC00000F084F8922449004FF000504FF08051E7
:103FD000FFF7BFBFB0FA80F310FA03F2C3F19D03FD
:103FE0000AD0D90501EB1220530638BF704700F103
:103FF000010008BF20F001007047000050EA010CEA
:1040000000F113801CF5000F58BFBCF5000F01D460
:104010008842704707D710F5000F58BF11F5000F01
:1040200015D488427047894270471CF5000F04D5AB
:10403000BCF5000FF7D5814270474FF0807C1CEB38
:10404000400F38BF1CEB410F01D28142704710B5C1
:1040500000F03CF8922449004FF080504FF000519E
:10406000FFF777BF50EA010C00F113801CF5000F39
:1040700058BFBCF5000F01D48842704707D710F530
:10408000000F58BF11F5000F15D4884270478942C0
:1040900070471CF5000F04D5BCF5000FF7D5814221
:1040A00070474FF0807C1CEB400F38BF1CEB410F7A
:1040B00001D28142704710B500F008F892244900FF
:1040C0004FF000504FF08051FFF743BF0EF1020E4A
:1040D0002EF0030E5EF8044B244204D44FEA410252
:1040E000B2F17F4F11D84FEA4003B3F17F4F0CD8A4
:1040F0000ED14FEAD07C0CEB4C0C0CF1020CB2F15F
:104100007F4F08BF4CEBD17C04E04FF0080C01E07E
:104110004FEAD17C0CEB4C0324FA03F404F00704BF
:10412000B4F1040C06D20EEB840CBDE810404CF048
:10413000010C6047DFE80CF0070802024FF0004076
:10414000A0F5800010BD0846420018BFD2F1807271
:1041500088BF00F0004010BDFF2141EAD050C005EB
:104160007047FCF714BBFCF749BC303132333435AF
:1041700036373839414243444546403058003031A3
:1041800032333435363738396162636465664030BE
:104190007800040000080000000000000002000198
:1041A00000001030313233343536373839616263CC
:1041B00064656678700030313233343536373839DB
:1041C0004142434445465850000000000240000070
:1041D000000000A00000000005400000000000C832
:1041E000000000000C4000000000409C00000000A7
:1041F000194000000020BCBE000000003440000058
:10420000BFC91B8E00000004B5400000504BCFD04A
:104210006607E2CF010000006C4100003E8251AA17
:10422000DFEEA73401000000D9420000DCB5A0E2B7
:104230003A301F97FFFFFFFFB4450000FD25A0C8DF
:10424000E9A3C14FFFFFFFFFFF3F00000000008018
:1042500000000000FF3F00000000008000000000A0
:104260000102000000000000000001020304060734
:104270000809000000000102030402030405060708
:1042800008090A0B0C0D0E0F10100000C8420008A0
:10429000000000201000000028010008D84200089B
:1042A0001000002068070000440100081C00000006
:1042B00043000000F8FFFFFF0C0000000E000000AC
:1042C0000F0000002E0000000100000010000000A0
:0842D0000024F40000000000CE
:04000005080000ED02
:00000001FF
